:020000040800F2
:1000000000500020A5850008F5850008F58500084A
:10001000F5850008F5850008F5850008000000005A
:10002000000000000000000000000000F58500084E
:10003000F585000800000000F5850008F58500083A
:10004000F5850008F5850008F5850008F5850008A8
:10005000F5850008F5850008F5850008F585000898
:10006000F5850008F5850008F5850008F585000888
:10007000F5850008F5850008F5850008F585000878
:10008000F5850008F5850008F5850008F585000868
:10009000F5850008F5850008F5850008799C0008BD
:1000A000F5850008F5850008F5850008F585000848
:1000B000E98700084D8B0008F5850008F5850008E4
:1000C000F5850008F5850008F5850008F585000828
:1000D000F5850008D5790008F5850008F585000844
:1000E000AD3E0008F5850008F58500080000000019
:1000F0000000000000000000000000000000000000
:0C01000000000000000000005FF808F1A3
:1001100010B5054C237833B9044B13B10448AFF341
:1001200000800123237010BD140100200000000096
:10013000C0B7000808B5034B1BB103490348AFF330
:10014000008008BD0000000018010020C0B70008B2
:1001500081F0004102E000BF83F0004330B54FEA78
:1001600041044FEA430594EA050F08BF90EA020FE5
:100170001FBF54EA000C55EA020C7FEA645C7FEA78
:10018000655C00F0E2804FEA5454D4EB5555B8BF9B
:100190006D420CDD2C4480EA020281EA030382EA0C
:1001A000000083EA010180EA020281EA0303362D9E
:1001B00088BF30BD11F0004F4FEA01314FF4801C71
:1001C0004CEA113102D0404261EB410113F0004F83
:1001D0004FEA03334CEA133302D0524263EB43033A
:1001E00094EA050F00F0A780A4F10104D5F1200ED8
:1001F0000DDB02FA0EFC22FA05F2801841F1000133
:1002000003FA0EF2801843FA05F359410EE0A5F106
:1002100020050EF1200E012A03FA0EFC28BF4CF037
:10022000020C43FA05F3C01851EBE37101F00045ED
:1002300007D54FF0000EDCF1000C7EEB00006EEBFA
:100240000101B1F5801F1BD3B1F5001F0CD3490884
:100250005FEA30004FEA3C0C04F101044FEA4452DB
:1002600012F5800F80F09A80BCF1004F08BF5FEA62
:10027000500C50F1000041EB045141EA050130BD42
:100280005FEA4C0C404141EB010111F4801FA4F1E5
:100290000104E9D191F0000F04BF01460020B1FA3A
:1002A00081F308BF2033A3F10B03B3F120020CDA72
:1002B0000C3208DD02F1140CC2F10C0201FA0CF050
:1002C00021FA02F10CE002F11402D8BFC2F1200CB5
:1002D00001FA02F120FA0CFCDCBF41EA0C0190406B
:1002E000E41AA2BF01EB0451294330BD6FEA0404B4
:1002F0001F3C1CDA0C340EDC04F11404C4F120029F
:1003000020FA04F001FA02F340EA030021FA04F3B0
:1003100045EA030130BDC4F10C04C4F1200220FA07
:1003200002F001FA04F340EA0300294630BD21FA45
:1003300004F0294630BD94F0000F83F4801306BF0B
:1003400081F480110134013D4EE77FEA645C18BFFF
:100350007FEA655C29D094EA050F08BF90EA020F96
:1003600005D054EA000C04BF1946104630BD91EA8E
:10037000030F1EBF0021002030BD5FEA545C05D191
:100380004000494128BF41F0004130BD14F58004D0
:100390003CBF01F5801130BD01F0004545F0FE4144
:1003A00041F470014FF0000030BD7FEA645C1ABF79
:1003B000194610467FEA655C1CBF0B46024650EAB0
:1003C000013406BF52EA033591EA030F41F40021DC
:1003D00030BD00BF90F0000F04BF0021704730B562
:1003E0004FF4806404F132044FF000054FF0000137
:1003F00050E700BF90F0000F04BF0021704730B5F8
:100400004FF4806404F1320410F0004548BF4042CC
:100410004FF000013EE700BF42004FEAE2014FEA21
:1004200031014FEA02701FBF12F07F4393F07F4FFC
:1004300081F06051704792F0000F14BF93F07F4F2E
:10044000704730B54FF4607401F0004521F0004171
:1004500020E700BF50EA010208BF704730B54FF0F7
:1004600000050AE050EA010208BF704730B511F0FC
:10047000004502D5404261EB41014FF4806404F134
:1004800032045FEA915C3FF4DCAE4FF003025FEAB6
:10049000DC0C18BF03325FEADC0C18BF033202EB3E
:1004A000DC02C2F1200300FA03FC20FA02F001FA98
:1004B00003FE40EA0E0021FA02F11444C1E600BF37
:1004C00070B54FF0FF0C4CF4E06C1CEA11541DBFEA
:1004D0001CEA135594EA0C0F95EA0C0F00F0DEF8B5
:1004E0002C4481EA030621EA4C5123EA4C5350EA9A
:1004F000013518BF52EA033541F4801143F48013EB
:1005000038D0A0FB02CE4FF00005E1FB02E506F07B
:100510000042E0FB03E54FF00006E1FB03569CF0D0
:10052000000F18BF4EF0010EA4F1FF04B6F5007FD6
:1005300064F5407404D25FEA4E0E6D4146EB060648
:1005400042EAC62141EA55514FEAC52040EA5E50D1
:100550004FEACE2EB4F1FD0C88BFBCF5E06F1ED87B
:10056000BEF1004F08BF5FEA500E50F1000041EBB2
:10057000045170BD06F0004646EA010140EA02005F
:1005800081EA0301B4EB5C04C2BFD4EB0C0541EA81
:10059000045170BD41F480114FF0000E013C00F396
:1005A000AB8014F1360FDEBF002001F0004170BDBA
:1005B000C4F10004203C35DA0C341BDC04F11404D3
:1005C000C4F1200500FA05F320FA04F001FA05F25F
:1005D00040EA020001F0004221F0004110EBD3702C
:1005E00021FA04F642EB06015EEA430E08BF20EA58
:1005F000D37070BDC4F10C04C4F1200500FA04F3FB
:1006000020FA05F001FA04F240EA020001F000418C
:1006100010EBD37041F100015EEA430E08BF20EAFF
:10062000D37070BDC4F1200500FA05F24EEA020E47
:1006300020FA04F301FA05F243EA020321FA04F076
:1006400001F0004121FA04F220EA020000EBD3702D
:100650005EEA430E08BF20EAD37070BD94F0000F2D
:100660000FD101F00046400041EB010111F4801F61
:1006700008BF013CF7D041EA060195F0000F18BF12
:10068000704703F00046520043EB030313F4801F4E
:1006900008BF013DF7D043EA0603704794EA0C0F08
:1006A0000CEA135518BF95EA0C0F0CD050EA41061E
:1006B00018BF52EA4306D1D181EA030101F000419B
:1006C0004FF0000070BD50EA410606BF10461946C3
:1006D00052EA430619D094EA0C0F02D150EA0136CF
:1006E00013D195EA0C0F05D152EA03361CBF104610
:1006F00019460AD181EA030101F0004141F0FE41AF
:1007000041F470014FF0000070BD41F0FE4141F432
:10071000780170BD70B54FF0FF0C4CF4E06C1CEA32
:1007200011541DBF1CEA135594EA0C0F95EA0C0FE7
:1007300000F0A7F8A4EB050481EA030E52EA0335A2
:100740004FEA013100F088804FEA03334FF08055C3
:1007500045EA131343EA12634FEA022245EA1115F0
:1007600045EA10654FEA00260EF000419D4208BFA1
:10077000964244F1FD0404F5407402D25B084FEA4E
:100780003202B61A65EB03055B084FEA32024FF4FA
:1007900080104FF4002CB6EB020E75EB030E22BF57
:1007A000B61A754640EA0C005B084FEA3202B6EB17
:1007B000020E75EB030E22BFB61A754640EA5C00C6
:1007C0005B084FEA3202B6EB020E75EB030E22BF56
:1007D000B61A754640EA9C005B084FEA3202B6EB57
:1007E000020E75EB030E22BFB61A754640EADC0016
:1007F00055EA060E18D04FEA051545EA16754FEA78
:1008000006164FEAC30343EA52734FEAC2025FEA95
:100810001C1CC0D111F4801F0BD141EA00014FF024
:1008200000004FF0004CB6E711F4801F04BF0143F5
:100830000020B4F1FD0C88BFBCF5E06F3FF6AFAE11
:10084000B5EB030C04BFB6EB020C5FEA500C50F1A1
:10085000000041EB045170BD0EF0004E4EEA113124
:1008600014EB5C04C2BFD4EB0C0541EA045170BD2B
:1008700041F480114FF0000E013C90E645EA060E6F
:100880008DE60CEA135594EA0C0F08BF95EA0C0F9D
:100890003FF43BAF94EA0C0F0AD150EA01347FF4E5
:1008A00034AF95EA0C0F7FF425AF104619462CE7BC
:1008B00095EA0C0F06D152EA03353FF4FDAE10461F
:1008C000194622E750EA410618BF52EA43067FF470
:1008D000C5AE50EA41047FF40DAF52EA43057FF400
:1008E000EBAE12E74FF0FF3C06E000BF4FF0010C0B
:1008F00002E000BF4FF0010C4DF804CD4FEA410C6F
:100900007FEA6C5C4FEA430C18BF7FEA6C5C1BD03B
:1009100001B050EA410C0CBF52EA430C91EA030FBC
:1009200002BF90EA020F0020704710F1000F91EA19
:10093000030F58BF994208BF90422CBFD8176FEAE7
:10094000E37040F0010070474FEA410C7FEA6C5CB5
:1009500002D150EA013C07D14FEA430C7FEA6C5CBC
:10096000D6D152EA033CD3D05DF8040B704700BFE8
:100970008446104662468C461946634600E000BF36
:1009800001B5FFF7B7FF002848BF10F1000F01BD08
:100990004DF808EDFFF7F4FF0CBF012000205DF8D3
:1009A00008FB00BF4DF808EDFFF7EAFF34BF012058
:1009B00000205DF808FB00BF4DF808EDFFF7E0FFF1
:1009C00094BF012000205DF808FB00BF4DF808ED42
:1009D000FFF7CEFF94BF012000205DF808FB00BFA9
:1009E0004DF808EDFFF7C4FF34BF012000205DF88B
:1009F00008FB00BF4FEA4102B2F1E04324BFB3F568
:100A0000001CDCF1FE5C0DD901F0004C4FEAC00285
:100A10004CEA5070B2F1004F40EB830008BF20F069
:100A20000100704711F0804F21D113F13872BCBF23
:100A300001F00040704741F480114FEA5252C2F178
:100A40001802C2F1200C10FA0CF320FA02F018BFC1
:100A500040F001004FEAC1234FEAD32303FA0CFC14
:100A600040EA0C0023FA02F34FEA4303CCE77FEAA3
:100A7000625307D150EA01331EBF4FF0FE4040F4ED
:100A80004000704701F0004040F0FE4040F400009C
:100A9000704700BF80F0004002E000BF81F00041DD
:100AA00042001FBF5FEA410392EA030F7FEA226C14
:100AB0007FEA236C6AD04FEA1262D2EB1363C1BFA4
:100AC000D218414048404140B8BF5B42192B88BF13
:100AD000704710F0004F40F4000020F07F4018BF36
:100AE000404211F0004F41F4000121F07F4118BF56
:100AF000494292EA030F3FD0A2F1010241FA03FCFE
:100B000010EB0C00C3F1200301FA03F100F00043E5
:100B100002D5494260EB4000B0F5000F13D3B0F1AD
:100B2000807F06D340084FEA310102F10102FE2A1C
:100B300051D2B1F1004F40EBC25008BF20F001008C
:100B400040EA03007047490040EB000010F4000F3A
:100B5000A2F10102EDD1B0FA80FCACF1080CB2EBCD
:100B60000C0200FA0CF0AABF00EBC250524218432C
:100B7000BCBFD0401843704792F0000F81F40001D1
:100B800006BF80F400000132013BB5E74FEA4103A4
:100B90007FEA226C18BF7FEA236C21D092EA030F10
:100BA00004D092F0000F08BF0846704790EA010F8A
:100BB0001CBF0020704712F07F4F04D1400028BFB7
:100BC00040F00040704712F100723CBF00F5000099
:100BD000704700F0004343F0FE4040F400007047CF
:100BE0007FEA226216BF08467FEA2363014642027B
:100BF00006BF5FEA412390EA010F40F4800070478E
:100C00004FF0000304E000BF10F0004348BF404233
:100C10005FEA000C08BF704743F0964301464FF06F
:100C200000001CE050EA010208BF70474FF00003CB
:100C30000AE000BF50EA010208BF704711F000430C
:100C400002D5404261EB41015FEA010C02BF8446DC
:100C50000146002043F0B64308BFA3F18053A3F53B
:100C60000003BCFA8CF2083AA3EBC25310DB01FA82
:100C700002FC634400FA02FCC2F12002BCF1004F06
:100C800020FA02F243EB020008BF20F00100704797
:100C900002F1200201FA02FCC2F1200250EA4C00EB
:100CA00021FA02F243EB020008BF20EADC70704731
:100CB0004FF0FF0C1CEAD0521EBF1CEAD15392EA3F
:100CC0000C0F93EA0C0F6FD01A4480EA010C40021B
:100CD00018BF5FEA41211ED04FF0006343EA501075
:100CE00043EA5111A0FB01310CF00040B1F5000FB7
:100CF0003EBF490041EAD3715B0040EA010062F166
:100D00007F02FD2A1DD8B3F1004F40EBC25008BF4F
:100D100020F00100704790F0000F0CF0004C08BF6D
:100D200049024CEA502040EA51207F3AC2BFD2F13A
:100D3000FF0340EAC250704740F400004FF0000348
:100D4000013A5DDC12F1190FDCBF00F00040704782
:100D5000C2F10002410021FA02F1C2F1200200FAC0
:100D600002FC5FEA310040F1000053EA4C0308BF87
:100D700020EADC70704792F0000F00F0004C02BFD8
:100D8000400010F4000F013AF9D040EA0C0093F053
:100D9000000F01F0004C02BF490011F4000F013BAD
:100DA000F9D041EA0C018FE70CEAD15392EA0C0F1B
:100DB00018BF93EA0C0F0AD030F0004C18BF31F086
:100DC000004CD8D180EA010000F00040704790F05C
:100DD000000F17BF90F0004F084691F0000F91F000
:100DE000004F14D092EA0C0F01D142020FD193EAC6
:100DF0000C0F03D14B0218BF084608D180EA01004E
:100E000000F0004040F0FE4040F40000704740F029
:100E1000FE4040F4400070474FF0FF0C1CEAD052F7
:100E20001EBF1CEAD15392EA0C0F93EA0C0F69D053
:100E3000A2EB030280EA010C49024FEA402037D0BE
:100E40004FF0805343EA111143EA10130CF00040B5
:100E50008B4238BF5B0042F17D024FF4000C8B42A5
:100E600024BF5B1A40EA0C00B3EB510F24BFA3EB85
:100E7000510340EA5C00B3EB910F24BFA3EB910355
:100E800040EA9C00B3EBD10F24BFA3EBD10340EAAF
:100E9000DC001B0118BF5FEA1C1CE0D1FD2A3FF6F5
:100EA00050AF8B4240EBC25008BF20F001007047AA
:100EB0000CF0004C4CEA50207F32C2BFD2F1FF034D
:100EC00040EAC250704740F400004FF00003013A7E
:100ED00037E792F0000F00F0004C02BF400010F422
:100EE000000F013AF9D040EA0C0093F0000F01F036
:100EF000004C02BF490011F4000F013BF9D041EA58
:100F00000C0195E70CEAD15392EA0C0F08D142028A
:100F10007FF47DAF93EA0C0F7FF470AF084676E75D
:100F200093EA0C0F04D14B023FF44CAF08466EE736
:100F300030F0004C18BF31F0004CCAD130F0004204
:100F40007FF45CAF31F000437FF43CAF5FE700BF5C
:100F50004FF0FF3C06E000BF4FF0010C02E000BF85
:100F60004FF0010C4DF804CD4FEA40024FEA410327
:100F70007FEA226C18BF7FEA236C11D001B052EADD
:100F8000530C18BF90EA010F58BFB2EB030088BFA3
:100F9000C81738BF6FEAE17018BF40F00100704712
:100FA0007FEA226C02D15FEA402C05D17FEA236CF4
:100FB000E4D15FEA412CE1D05DF8040B704700BF3B
:100FC000844608466146FFE70FB5FFF7C9FF0028D2
:100FD00048BF10F1000F0FBD4DF808EDFFF7F4FF0B
:100FE0000CBF012000205DF808FB00BF4DF808EDA4
:100FF000FFF7EAFF34BF012000205DF808FB00BFC7
:101000004DF808EDFFF7E0FF94BF012000205DF8E8
:1010100008FB00BF4DF808EDFFF7D2FF94BF012099
:1010200000205DF808FB00BF4DF808EDFFF7C8FF92
:1010300034BF012000205DF808FB00BF4FEA4002EA
:101040004FEA41037FEA226C02D15FEA402C08D1CB
:101050007FEA236C02D15FEA412C02D14FF00000FD
:1010600070474FF0010070474FEA4002B2F1FE4F67
:101070000FD34FF09E03B3EB12620DD94FEA00235A
:1010800043F0004310F0004F23FA02F018BF404233
:1010900070474FF00000704712F1610F01D142021A
:1010A00005D110F0004008BF6FF0004070474FF0CE
:1010B0000000704742000ED2B2F1FE4F0BD34FF04A
:1010C0009E03B3EB126209D44FEA002343F00043BE
:1010D00023FA02F070474FF00000704712F1610FE1
:1010E00001D1420202D14FF0FF3070474FF00000B3
:1010F000704700BF80B483B000AF7860054A7B685A
:1011000043F0BF6343F40033D36000BF0C37BD46E8
:1011100080BC704700ED00E080B487B000AF78601D
:1011200000237B6100233B610F23FB607B68DB783E
:10113000002B3AD0274BDB68DB431B0A03F0070385
:101140007B617B69C3F104033B61FA687B6922FA26
:1011500003F3FB607B685B781A463B6902FA03F392
:101160007B617B689B781A46FB6813407A6913435E
:101170007B617B691B017B61174A7B681B787969FE
:10118000C9B213440A4683F80023134A7B681B78CC
:101190005B09DBB218467B681B7803F01F03012153
:1011A00001FA03F342F820300FE00B497B681B780B
:1011B0005B09DBB218467B681B7803F01F03012232
:1011C0009A4000F1200341F8232000BF1C37BD46A0
:1011D00080BC704700ED00E000E100E080B485B025
:1011E00000AF78600023FB60344BFB607B689B7929
:1011F000002B4FD03149314B1A687B681B68DB43A9
:1012000013400B602D492D4B5A687B681B68DB43EC
:1012100013404B607B681B791A46FB681344FB60E4
:10122000FB68FA6811687A6812680A431A602349F1
:10123000224B9A687B681B68DB4313408B601F4915
:101240001E4BDA687B681B68DB431340CB607B680E
:101250005B79102B0ED11949184B9A687B681B6873
:1012600013438B601549154BDA687B681B68134381
:10127000CB601DE0114BFB607B685B791A46FB6815
:101280001344FB60FB68FA6811687A6812680A43C5
:101290001A600DE07B681B791A46FB681344FB60FB
:1012A000FB68FA6811687A681268D2430A401A60CB
:1012B00000BF1437BD4680BC704700BF000401402A
:1012C00080B485B000AF78600023FB730023BB605F
:1012D0000C4B1A687B681340BB600A4B5A697B68E9
:1012E0001340002B05D0BB68002B02D00123FB73F9
:1012F00001E00023FB73FB7B18461437BD4680BC1E
:10130000704700BF0004014080B483B000AF786034
:10131000034A7B68536100BF0C37BD4680BC7047F1
:101320000004014080B400AF044B054A5A60034BEF
:10133000044A5A6000BFBD4680BC7047002002408E
:1013400023016745AB89EFCD80B584B000AF7860ED
:101350000423FB734FF4302000F080F80346FB7346
:10136000FB7B042B1BD1104A0F4B1B6943F002037C
:1013700013610D4A7B6853610B4A0B4B1B6943F0A9
:10138000400313614FF4302000F068F80346FB730C
:101390000549054B1A6941F6FD7313400B61FB7B50
:1013A00018461037BD4680BD0020024080B584B08D
:1013B00000AF78600B467B800423FB734FF4005032
:1013C00000F04CF80346FB73FB7B042B15D10D4A50
:1013D0000C4B1B6943F0010313617B687A881A8008
:1013E0004FF4005000F03AF80346FB730549054BF3
:1013F0001A6941F6FE7313400B61FB7B18461037E8
:10140000BD4680BD0020024080B483B000AF0423FD
:10141000FB71114BDB6803F00103012B02D10123A7
:10142000FB7113E00C4BDB6803F00403002B02D0CC
:101430000223FB710AE0084BDB6803F01003002B6A
:1014400002D00323FB7101E00423FB71FB791846F2
:101450000C37BD4680BC70470020024080B584B088
:1014600000AF78600423FB73FFF7CEFF0346FB73E6
:1014700006E0FFF7C9FF0346FB737B68013B7B6017
:10148000FB7B012B02D17B68002BF2D17B68002B08
:1014900001D10523FB73FB7B18461037BD4680BD89
:1014A00080B489B000AF786039600023FB6100230D
:1014B0003B610023BB610023FB6000237B610023B1
:1014C000BB603B68DB7803F00F03FB613B68DB78B4
:1014D00003F01003002B05D03B689B781A46FB698C
:1014E0001343FB613B681B88DBB2002B44D07B6855
:1014F0001B687B610023BB6138E00122BB6902FAF3
:1015000003F3FB603B681B881A46FB6813403B6192
:101510003A69FB689A4226D1BB699B00FB600F22A7
:10152000FB6802FA03F3BB60BB68DB437A691340D4
:101530007B61FA69FB6802FA03F37A6913437B6102
:101540003B68DB78282B05D10122BB699A407B6878
:101550005A6108E03B68DB78482B04D10122BB6963
:101560009A407B681A61BB690133BB61BB69072B79
:10157000C3D97B687A691A603B681B88FF2B46D900
:101580007B685B687B610023BB613AE0BB69083321
:10159000012202FA03F3FB603B681B881A46FB68D2
:1015A00013403B613A69FB689A4227D1BB699B00B3
:1015B000FB600F22FB6802FA03F3BB60BB68DB43EE
:1015C0007A6913407B61FA69FB6802FA03F37A696E
:1015D00013437B613B68DB78282B05D1BB6908335B
:1015E00001229A407B685A613B68DB78482B05D121
:1015F000BB69083301229A407B681A61BB690133D9
:10160000BB61BB69072BC1D97B687A695A6000BF8F
:101610002437BD4680BC704780B483B000AF78608B
:101620007B689B689BB218460C37BD4680BC7047F0
:1016300080B483B000AF78607B68DB689BB21846EB
:101640000C37BD4680BC704780B483B000AF786073
:101650000B467B807A887B681A6100BF0C37BD46D9
:1016600080BC704780B483B000AF78600B467B804D
:101670007A887B685A6100BF0C37BD4680BC7047D2
:1016800080B483B000AF78600B467B8013467B70DC
:101690007B78002B03D07A887B681A6102E07A8815
:1016A0007B685A6100BF0C37BD4680BC70470000A4
:1016B00080B487B000AF78600B46FB7000233B61BD
:1016C0000023FB6000237B610023BB607B68002B51
:1016D00003DA2E4BDB697B6102E02C4B5B687B619C
:1016E0007B681B0C03F00F03BB607B689BB23B6104
:1016F0007B6803F44013B3F5401F0AD17B6923F0E4
:1017000070637B61214A214B5B6823F070635360F7
:1017100021E07B6803F48013002B0ED00322BB680A
:1017200002FA03F3FB60FB68DB437A6913407B61D9
:101730007B6943F070637B610DE07B685B0D1B018F
:101740003A6902FA03F3DB437A6913407B617B69F0
:1017500043F070637B61FB78002B08D07B685B0DE6
:101760001B013A6902FA03F37A6913437B617B68D0
:10177000002B03DA054A7B69D36102E0034A7B69E7
:10178000536000BF1C37BD4680BC7047000001405D
:1017900090B484B000AF03460A46FB711346BB7198
:1017A0000023FB60BB7903F003039B000F2202FAC6
:1017B00003F3FB601649BB799B08DBB21846144A59
:1017C000BB799B08DBB2023352F82320FB68DB4372
:1017D0001A40831C41F823200D48BB799B08DBB2DB
:1017E0001C460B4ABB799B08DBB2023352F823201C
:1017F000F979BB7903F003039B0001FA03F31A4361
:10180000A31C40F8232000BF1037BD4690BC704792
:101810000000014080B487B000AF786000237B6196
:1018200000233B610023FB600023BB604C4B5B68E3
:1018300003F00C037B617B69042B07D0082B09D0D4
:10184000002B33D17B68474A1A6033E07B68454AF6
:101850001A602FE0424B5B6803F470133B61404B0E
:101860005B6803F48033FB603B699B0C02333B6194
:10187000FB68002B06D13B693B4A02FB03F27B6805
:101880001A6017E0364B5B6803F40033002B06D078
:101890003B69354A02FB03F27B681A600AE03B6948
:1018A000304A02FB03F27B681A6003E07B682D4A32
:1018B0001A6000BF2A4B5B6803F0F0037B617B6911
:1018C0001B097B61294A7B6913441B78DBB2BB602F
:1018D0007B681A68BB68DA407B685A60204B5B689B
:1018E00003F4E0637B617B691B0A7B611F4A7B69B0
:1018F00013441B78DBB2BB607B685A68BB68DA4074
:101900007B689A60164B5B6803F460537B617B696C
:10191000DB0A7B61154A7B6913441B78DBB2BB6031
:101920007B685A68BB68DA407B68DA600C4B5B689E
:1019300003F440437B617B699B0B7B610C4A7B69B1
:1019400013441B78DBB2BB607B68DA68BB68B2FB10
:10195000F3F27B681A6100BF1C37BD4680BC70473C
:101960000010024000127A0000093D000000002033
:101970001000002080B483B000AF78600B46FB708D
:10198000FB78002B06D00949084B9A697B68134302
:101990008B6106E00549054B9A697B68DB43134080
:1019A0008B6100BF0C37BD4680BC70470010024001
:1019B00080B485B000AF786039600023FB817B681C
:1019C0001B88FB817B682E4A934213D07B682D4A8B
:1019D00093420FD07B68B3F1804F0BD07B682A4ACB
:1019E000934207D07B68294A934203D07B68284AF8
:1019F000934208D1FB8923F07003FB813B685A882E
:101A0000FB891343FB817B68224A93420CD07B689D
:101A1000214A934208D0FB8923F44073FB813B6841
:101A2000DA88FB891343FB817B68FA891A803B685B
:101A30009A887B689A853B681A887B681A857B68D8
:101A40000F4A93420FD07B680E4A93420BD07B68BB
:101A5000124A934207D07B68114A934203D07B68B5
:101A6000104A934204D13B681B7A9AB27B681A866B
:101A70007B6801229A8200BF1437BD4680BC704744
:101A8000002C0140003401400004004000080040E8
:101A9000000C0040001000400014004000400140D5
:101AA000004401400048014080B485B000AF786038
:101AB000396000237B810023FB810023BB817B688D
:101AC0001B8C9BB223F001039AB27B681A847B685B
:101AD0001B8CFB817B689B88BB817B681B8B7B811C
:101AE0007B8923F070037B817B8923F003037B8157
:101AF0003B681A887B8913437B81FB8923F00203AF
:101B0000FB813B681A89FB891343FB813B685A8838
:101B1000FB891343FB817B68244A93420FD07B6887
:101B2000234A93420BD07B68224A934207D07B68BA
:101B3000214A934203D07B68204A934223D1FB89F8
:101B400023F00803FB813B685A89FB891343FB811F
:101B5000FB8923F00403FB813B689A88FB891343CC
:101B6000FB81BB8923F48073BB81BB8923F40073A1
:101B7000BB813B689A89BB891343BB813B68DA8987
:101B8000BB891343BB817B68BA899A807B687A8959
:101B90001A833B68DA887B689A867B68FA891A849C
:101BA00000BF1437BD4680BC704700BF002C014009
:101BB0000034014000400140004401400048014021
:101BC00080B483B000AF78607B684FF6FF729A8074
:101BD0007B6800221A807B680022DA807B68002202
:101BE0005A807B6800221A7200BF0C37BD4680BC49
:101BF000704780B483B000AF78600B46FB70FB7811
:101C0000002B08D07B681B889BB243F001039AB27B
:101C10007B681A8007E07B681B889BB223F0010376
:101C20009AB27B681A8000BF0C37BD4680BC7047F3
:101C300080B483B000AF78600B46FB70FB78002B5C
:101C40000CD07B68B3F844309BB26FEA43436FEA31
:101C500053439AB27B68A3F8442009E07B68B3F849
:101C600044309BB2C3F30E039AB27B68A3F84420BE
:101C700000BF0C37BD4680BC704780B483B000AF56
:101C800078600B467B8013467B707B78002B08D0F6
:101C90007B689B899AB27B8813439AB27B689A814E
:101CA00009E07B689B899AB27B88DB439BB2134037
:101CB0009AB27B689A8100BF0C37BD4680BC7047E2
:101CC00080B485B000AF78600B467B800023FB8139
:101CD0007B681B8BFB81FB8923F00803FB81FA895E
:101CE0007B881343FB817B68FA891A8300BF143712
:101CF000BD4680BC704780B483B000AF78600B46AF
:101D00007B807B88DB439AB27B681A8200BF0C37EA
:101D1000BD4680BC7047000080B58CB000AF7860D5
:101D200039600023FB620023BB6200237B62002337
:101D30003B620023FB617B68FB617B681B8A9BB273
:101D4000FB62FA6A4CF6FF731340FB623B68DB8868
:101D50001A46FB6A1343FB62FB6A9AB27B681A82DB
:101D60007B689B899BB2FB62FA6A4EF6F3131340C1
:101D7000FB623B689A883B681B8913439AB23B68B5
:101D80005B8913439BB21A46FB6A1343FB62FB6AEF
:101D90009AB27B689A817B689B8A9BB2FB62FA6AE3
:101DA0004FF6FF431340FB623B689B891A46FB6A70
:101DB0001343FB62FB6A9AB27B689A8207F10803BD
:101DC0001846FFF727FDFB692E4A934202D17B6933
:101DD000BB6201E03B69BB627B689B899BB21BB223
:101DE000002B0CDABA6A13469B0013449A001A447B
:101DF0003B681B685B00B2FBF3F37B620BE0BA6AE3
:101E000013469B0013449A001A443B681B689B00CE
:101E1000B2FBF3F37B627B6A1B4AA2FB03235B09E1
:101E20001B01FB62FB6A1B09642202FB03F37A6A53
:101E3000D31A3B627B689B899BB21BB2002B0CDAE6
:101E40003B6ADB003233104AA2FB03235B0903F039
:101E50000703FA6A1343FB620BE03B6A1B01323350
:101E6000094AA2FB03235B0903F00F03FA6A134339
:101E7000FB62FB6A9AB27B681A8100BF3037BD46AD
:101E800080BD00BF003801401F85EB5180B483B096
:101E900000AF78600B46FB70FB78002B08D07B68A6
:101EA0009B899BB243F400539AB27B689A8107E006
:101EB0007B689B899BB223F400539AB27B689A811A
:101EC00000BF0C37BD4680BC704780B487B000AF00
:101ED00078600B467B8013467B7000233B610023B8
:101EE000FB600023BB6000237B617B687B617B8898
:101EF000DBB25B09DBB23B617B8803F01F03FB6055
:101F00000122FB6802FA03F3BB603B69012B03D19A
:101F10007B690C337B6109E03B69022B03D17B6950
:101F200010337B6102E07B6914337B617B78002B8B
:101F300006D07B697A691168BA680A431A6006E0BC
:101F40007B697A691168BA68D2430A401A6000BF97
:101F50001C37BD4680BC704780B582B000AF012100
:101F60000820FFF707FD0323BB711023FB7110232B
:101F7000BB803B1D19460C48FFF792FA012108204F
:101F8000FFF7F8FC0323BB711023FB710823BB8010
:101F90003B1D19460448FFF783FA00F02BF800BFF9
:101FA0000837BD4680BD00BF000C014080B582B03F
:101FB00000AF0023FB710E48FFF73AFB034603F026
:101FC0001003002B03D0FB7943F00103FB71084899
:101FD000FFF72EFB034603F00803002B03D0FB7929
:101FE00043F00203FB71FB7918460837BD4680BDFC
:101FF000000C014080B500AF10210448FFF732FB10
:1020000008210248FFF72EFB00BF80BD000C0140F5
:1020100080B582B000AF0346FB71114B5B78002B9B
:102020001AD1FB79002B02D1FFF7E4FF10E0FB7916
:1020300003F04003002B03D010210A48FFF704FBF4
:1020400097F90730002B03DA08210648FFF7FCFA5E
:10205000034B00221A7300E000BF0837BD4680BD65
:10206000000F0020000C014080B582B000AF034695
:10207000FB71074B1B78022B06D004F043F8FB7969
:102080001846FFF7C5FF00E000BF0837BD4680BD1A
:10209000000F002080B584B000AF224BFB60224BC4
:1020A000BB604FF48063FB8004237B711D48FFF706
:1020B0004BF903467B717B79042B2FD12AE0BB6857
:1020C0001B884FF6FF72934208D0BB689A1CBA6017
:1020D0001B881946F868FFF769F902E0BB6802330C
:1020E000BB60BB681B884FF6FF72934209D0FB6848
:1020F000981CBB689A1CBA601B881946FFF756F9F2
:1021000002E0BB680233BB60FB88043BFB80FB68DA
:102110000433FB60FB88002BD1D100E000BF1037F7
:10212000BD4680BD00FC0108780A002080B483B061
:1021300000AF0023FB80184B3B600023FB800DE0C9
:102140003A68531C3B60FB8803F1006303F5FE33E0
:102150001B78DBB21370FB880133FB80FB88B3F57F
:10216000806FEDD30C4B1B780A2B10D00A4B3B60D1
:102170000023FB8007E03B685A1C3A60FF221A707C
:10218000FB880133FB80FB88B3F5806FF3D300BF7E
:102190000C37BD4680BC7047780A002080B483B0FD
:1021A00000AF7860044A7B6813441B7818460C37EC
:1021B000BD4680BC704700BF780A002080B483B061
:1021C00000AF78600B46FB70044A7B681344FA78D2
:1021D0001A7000BF0C37BD4680BC7047780A0020DB
:1021E00080B586B000AFF860B9607A600023FB75F7
:1021F0001EE0FB7D5B00002B03D197F91730002B0D
:1022000001DA012300E00023FB75BB681A78FB7D2F
:102210001344FB75FA68531CFB60BB68591CB9601A
:102220001B7819461046FFF7C9FF7B68013B7B60AE
:102230007B68002BDDD1FB7D1946F868FFF7BEFFF8
:10224000FFF728FF00BF1837BD4680BD80B586B0B8
:1022500000AFF860B9607A600023FB751FE0BB68CF
:102260005A1CBA601846FFF799FF0346BB75FB7D01
:102270005B00002B03D197F91730002B01DA012303
:1022800000E00023FB75FA7DBB7D1344FB75FB6802
:102290005A1CFA60BA7D1A707B68013B7B607B68D0
:1022A000002BDCD1B868FFF779FF03461A46FB7DA7
:1022B00093420CBF01230023DBB218461837BD46FA
:1022C00080BD000080B500AF44220021084808F01E
:1022D000BAF9074B9B790749184605F057FD0346A5
:1022E000002B02D1072004F0E3FB00BF80BD00BF3C
:1022F000780E0020A00E002080B500AF02490348F0
:1023000007F0C8FF00BF80BD240F0020940E0020FE
:10231000B0B59CB006AF786040220021E04808F0DC
:1023200092F9DF4BDF495A1C0B4603CB106051601A
:1023300019889B7811819372002387F85730002306
:1023400087F85330002387F85230002387F8513044
:102350000023A7F84E300023A7F84C30002387F85D
:102360004B307B681B78242B0BD197F84B3043F014
:10237000010387F84B30CA4B01225A70C84B002228
:102380009A70002387F83E300023A7F8483097F86A
:102390004B3003F00103002B03D0032387F82630D2
:1023A000EEE3002387F82630EAE397F826301A4652
:1023B0007B6813441B7887F83D3097F83D30402BFD
:1023C00003D997F83D305A2B02D9012301F047BCBD
:1023D00097F826300133DBB287F8263007F1200268
:1023E00007F126031946786802F0EEFC0346002B3D
:1023F00002D1022301F033BC3B6A184608F042FACE
:1024000003461846FEF756FE034687F83E303C6A00
:1024100097F83E301846FEF7F7FB0346194620466C
:10242000FEF73CFB0346A0491846FEF741FC034675
:10243000184608F0C5F90346A7F8483097F83D302C
:10244000472B03D04D2B00F0EA8199E297F83E30FC
:102450005E2B00F2BB8101A252F823F04D2600084A
:102460004D2600084D2600084D260008F5250008D9
:10247000CD270008CD270008CD270008CD2700086C
:10248000CD270008D9250008CD270008CD27000852
:10249000CD270008CD270008CD270008CD2700084C
:1024A000D5260008D5260008D52600083F270008B5
:1024B0003F270008CD270008CD270008CD270008BA
:1024C000CD270008CD270008CD270008D925000812
:1024D000CD270008D9250008CD270008CD27000802
:1024E000CD270008CD270008CD270008CD270008FC
:1024F000CD2700084D260008CD27000855270008E5
:10250000CD270008CD2700085D270008CD2700084B
:10251000CD270008CD270008CD270008CD270008CB
:102520005D270008CD270008CD270008CD2700082B
:10253000F5250008A5270008A5270008A5270008FD
:10254000A5270008A5270008A5270008CD27000813
:10255000B9270008CD270008CD270008CD2700089F
:10256000CD270008CD270008CD270008CD2700087B
:10257000CD270008CD270008CD270008CD2700086B
:10258000CD270008CD270008CD270008CD2700085B
:10259000CD270008CD270008CD27000861260008B8
:1025A000CD270008CD270008CD270008CD2700083B
:1025B000CD270008CD270008CD270008CD2700082B
:1025C000CD270008E9260008E9260008D9250008DB
:1025D0002927000829270008B7F84830002B09D11F
:1025E00097F85730002B02D0182301F038BB012395
:1025F00087F85730002387F84A30294A97F83E3049
:10260000137097F83E301C2B08D097F83E301E2BE5
:1026100004D097F83E305C2B40F0DB80B7F84830B0
:10262000002B06D0B7F848300A2B02D0142301F053
:1026300016BB1B4B1A78B7F84830DBB21344DAB23A
:10264000174B1A700023A7F84830C2E097F85730AC
:10265000002B02D0182301F002BB022387F8573069
:10266000012387F84A300E4A97F83E30537097F8A6
:102670003E30262B40F0AF80B7F84830142B15D0F1
:10268000B7F848301E2B11D0B7F84830282B0DD0A2
:10269000B7F84830322B09D0142301F0E0BA00BF5C
:1026A000BC0E0020780E00200000C842D24B5A78A1
:1026B000B7F84830D149A1FB0313DB089BB2DBB26A
:1026C0001344DBB26433DAB2CB4B5A700023A7F861
:1026D000483080E0022387F84A3097F83E30113BBB
:1026E000DAB2C54B5A7179E0B7F84830002B09D1FE
:1026F000032387F84A3097F83E305A3BDAB2BE4B94
:102700001A716BE0042387F84A30B7F848300A2B77
:1027100003D197F83E305A2B02D1142301F09FBA0F
:102720000023A7F8483059E0052387F84A3097F886
:102730003E30C3F15E03DAB2AF4B9A704EE006232F
:1027400087F84A3097F83E30C3F11503DAB2AA4B46
:10275000DA7043E0072387F84A303FE0082387F820
:102760004A3097F85730002B02D0182301F077BA7F
:10277000032387F8573097F83E30312B03D19E4B17
:1027800000229A710AE0B7F848300A2B03D19A4B1D
:1027900001229A7102E0142301F061BA0023A7F824
:1027A00048301BE0092387F84A3097F83E30363B23
:1027B000DAB2914BDA7111E00A2387F84A30B7F8A0
:1027C0004830002B09D0142301F049BA142301F03A
:1027D00046BA00BF02E000BF00E000BFB7F84830D3
:1027E000002B02D0172301F03ABAB7F84E2097F821
:1027F0004A3042FA03F303F00103002B02D0152301
:1028000001F02DBA97F84A30012202FA03F31AB206
:10281000B7F94E3013431BB2A7F84E30B0E1B7F80A
:102820004830002B02D0172301F019BA97F83E3038
:102830001E2B00F2888001A252F823F0B92800086C
:10284000B9280008B9280008E3280008E328000890
:10285000E328000847290008152900081529000861
:1028600015290008472900084729000847290008BA
:102870004729000847290008472900084729000878
:102880004729000847290008472900084729000868
:102890004729000847290008472900084729000858
:1028A0004729000847290008472900084729000848
:1028B00047290008B92800080B2387F84A3097F801
:1028C0003E30002B02D0012B09D003E04A4B0322FB
:1028D0001A7205E0484A97F83E30137236E000BF9E
:1028E00034E00C2387F84A3097F83E30042B08D0A8
:1028F000052B0AD0032B00D028E03F4B10229A7200
:1029000007E03D4B20229A7203E03B4B00229A7273
:1029100000BF1BE00D2387F84A3097F83E30082BA4
:1029200008D0092B0AD0072B00D00FE0324B8022B1
:102930005A7207E0304B40225A7203E02E4B0022BD
:102940005A7200BF02E0142301F089B9B7F84E2093
:1029500097F84A3042FA03F303F00103002B02D048
:10296000152301F07CB997F84A30012202FA03F3EB
:102970001AB2B7F94E3013431BB2A7F84E30FFE03E
:1029800097F83D30463B142B00F2C88001A252F864
:1029900023F000BFE92900081D2B00081D2B0008AB
:1029A000012A00081B2A0008352A00084F2A0008BF
:1029B0001D2B00085F2A00081D2B00087D2A000837
:1029C0001D2B00088B2A0008992A0008A72A000856
:1029D0001D2B00081D2B00081D2B0008CF2A000806
:1029E000E92A0008032B0008002387F84A303B6AD5
:1029F000014AD36095E000BFBC0E0020CDCCCCCC0A
:102A0000012387F84A303B6AB44A136197F8513082
:102A100043F0010387F8513083E0022387F84A30FE
:102A20003B6AAE4A536197F8513043F0020387F88E
:102A3000513076E0032387F84A303B6AA74A936116
:102A400097F8513043F0040387F8513069E00423CC
:102A500087F84A30A14A97F83E30137761E00523A2
:102A600087F84A303B6A184607F00CFF03461846C1
:102A7000FEF7FAFA0246994B1A6252E0062387F8EB
:102A80004A303B6A954A53624BE0072387F84A3045
:102A90003B6A924A936244E0082387F84A303B6AD3
:102AA0008E4AD3623DE0092387F84A303B6A8C495D
:102AB0001846FEF7B9FA0346002B02D0262301F090
:102AC000CEB8864A97F83E3082F8303029E00A23A3
:102AD00087F84A303B6A814A536397F8523043F093
:102AE000010387F852301CE00B2387F84A303B6A19
:102AF0007A4A936397F8523043F0020387F85230D2
:102B00000FE00C2387F84A303B6A744AD36397F886
:102B1000523043F0040387F8523002E0142301F0EE
:102B20009EB8B7F84C2097F84A3042FA03F303F006
:102B30000103002B02D0192301F091B897F84A3015
:102B400040F2613242FA03F303F00103002B0BD091
:102B50003B6A4FF000011846FEF748FA0346002B87
:102B600002D0042301F07BB897F84A30012202FA20
:102B700003F31AB2B7F94C3013431BB2A7F84C3029
:102B800097F826301A467B6813441B78002B7FF495
:102B90000CAC97F85230002B06D097F85730002B2A
:102BA00002D1022387F85730B7F84C3003F02003E6
:102BB000002B07D0494B1B6A4A4A934202DD1B2374
:102BC00001F04DB897F84B3003F00103002B17D0FC
:102BD000B7F84C3003F00103002B02D1162301F0AB
:102BE0003EB83E4BDB78012B40D13C4BDB683E4985
:102BF0001846FEF75DF803461A46384BDA6035E0B2
:102C0000364B9B78012B14D197F85730022B2DD1DE
:102C1000324B5B78502B29D0304B5B78002B25D082
:102C2000B7F84C3003F00103002B1FD1162301F03D
:102C300016B82E4B5B78002B18D1B7F84C3003F048
:102C40000103002B0ED0254BDB78012B0ED1234B3B
:102C5000DB6825491846FEF72BF803461A461F4B3A
:102C6000DA6003E0214B1B691C4AD360B7F84C3093
:102C700003F48073002B03D11C4BDB68174AD3622B
:102C8000164B1B78042B0ED1B7F84C3003F04003E1
:102C9000002B02D11C2300F0E2BFB7F84C3023F028
:102CA0004003A7F84C300D4B5B79002B02D0012B71
:102CB0000AD01DE0002387F85630012387F85530ED
:102CC000022387F854301CE0022387F85630002393
:102CD00087F85530012387F8543012E0BC0E0020ED
:102CE00000007F43809698003333CB41780E00205C
:102CF000012387F85630022387F85530002387F8E0
:102D000054309E4BDB78012B2BD1002387F84730C2
:102D100023E097F8522097F8473042FA03F303F084
:102D20000103002B14D097F8474097F84730934A97
:102D30000C339B0013445B6891491846FDF7B8FFBC
:102D4000034619468D4A04F10C039B001344596055
:102D500097F84730013387F8473097F84730022B10
:102D6000D7D997F85730032B0AD1844B9B79012B85
:102D700006D197F85230042B02D0252300F06FBF04
:102D8000804A07F11403283207CA83E80700B7F81E
:102D90004E3003F40073002B1AD0784BDB79062BEE
:102DA00002D91D2300F05BBF764B9A79734BDB7918
:102DB0009A420DD0714BDB7907F114021146184687
:102DC00004F0E4FF0346002B02D1072300F047BFC5
:102DD0006A4B1B780A2B03D05C2B00F0C3803DE1CB
:102DE00097F85230002B02D11A2300F038BFB7F801
:102DF0004C3003F05003002B02D11C2300F02FBFF6
:102E00005E4B5B6A184607F03DFD03461846FEF729
:102E100051F9034687F8533097F85330062B02D9FF
:102E20001D2300F01CBF554B1B7F142B0FD0534BA1
:102E30001B7F022B08D1B7F84C3003F08003002B26
:102E400005D0142300F00BBF142300F008BFB7F81F
:102E50004C3023F05003A7F84C3097F85330002B38
:102E600005D097F85330013B87F8533003E0434BCC
:102E7000DB7987F8533097F853304349184604F00C
:102E800085FF0346002B02D1072300F0E8BE002394
:102E900087F8473061E097F8522097F8473042FAB8
:102EA00003F303F00103002B52D0344B1B7F142B90
:102EB00040D197F8474097F84730324A06339B0095
:102EC0001344586897F847302E4A0C339B0013443C
:102ED0005B681946FDF7E2FD0346184697F8473050
:102EE000264A0C339B0013445B681946FDF7D6FD58
:102EF00003461946214AA31C9B001344996097F886
:102F00004730022B24D197F8474097F847301B4AA7
:102F100002339B0013449A681A4B1B6C19461046E7
:102F2000FDF7BCFD03461946144AA31C9B0013443D
:102F300099600DE097F8471097F847300F4A0C3327
:102F40009B0013445A680D488B1C9B0003449A60F5
:102F500097F84730013387F8473097F84730022B0E
:102F600099D97BE197F85230002B02D11A2300F057
:102F700076BE002387F847306BE000BFBC0E002010
:102F80003333CB41780E0020CC0E002097F852202E
:102F900097F8473042FA03F303F00103002B44D0C3
:102FA00097F8474097F84730BB4A06339B001344D5
:102FB0005A6897F847309B0007F158010B4453F8C3
:102FC000443C19461046FDF769FD0346184697F83C
:102FD0004730B24A0C339B0013445B681946FDF737
:102FE0005DFD03461946AD4A04F10C039B001344F2
:102FF000596097F84730022B26D197F8474097F849
:103000004730A64A0C339B0013445A68A24B1B6CF2
:1030100019461046FDF742FD034619469F4A04F142
:103020000C039B00134459600EE097F8471097F883
:103030004730994A0C339B0013445A68974801F172
:103040000C039B0003445A6097F84730013387F81C
:10305000473097F84730022B98D9FFE097F8573060
:10306000032B00F0948097F85230002B00F08F80F3
:10307000002387F8473085E097F8522097F84730CB
:1030800042FA03F303F00103002B0FD197F8471026
:1030900097F84730804A06339B0013445A687F48AC
:1030A00001F10C039B0003445A6066E07B4B1B78E4
:1030B000352B62D0794B1B79002B43D197F84740D1
:1030C00097F84730754A0C339B0013445D6897F8B6
:1030D00047309B0007F15802134453F8440C97F80B
:1030E00047306D4A0C339B0013445B681946FDF76B
:1030F000D7FC034619462846FDF7D2FC034619467D
:10310000664A04F10C039B001344596097F847305A
:10311000022B32D197F8474097F847305F4A0C337B
:103120009B0013445A685C4B1B6C19461046FDF714
:10313000B7FC03461946594A04F10C039B0013449B
:1031400059601AE097F8474097F84730534A0C33D4
:103150009B001344586897F847304F4A06339B004A
:1031600013445B681946FDF79BFC034619464B4A1E
:1031700004F10C039B001344596097F84730013366
:1031800087F8473097F84730022B7FF675AF434BEF
:103190001B78262B5DD0262B04DC1C2B08D01E2B85
:1031A00006D05BE0352B49D0662B54D0282B50E05D
:1031B0003A4B1B781C2B09D13949062004F0E6FD57
:1031C0000346002B0CD1072300F049BD34490720EA
:1031D00004F0DCFD0346002B02D1072300F03FBDC5
:1031E00097F85230002B25D0002387F847301CE099
:1031F00097F8522097F8473042FA03F303F001039F
:10320000002B0DD197F8471097F84730224A063324
:103210009B0013445A6821488B1C9B0003449A600E
:1032200097F84730013387F8473097F84730022B3B
:10323000DED913E0002387F857300FE0174B5B7897
:10324000002B0AD0154B5B78012B06D01E2300F013
:1032500006BD00BF02E000BF00E000BF0F4B5B787F
:10326000502B07D197F85230002B00F01B821F2300
:1032700000F0F5BC97F85730022B40F01382074B53
:103280005B78002B0ED197F85230002B40F00A8269
:10329000002387F8573005E2780E0020BC0E00208E
:1032A000CC0E0020A34BDB684FF000011846FDF761
:1032B00093FE0346002B02D0162300F0D0BC9D4B9A
:1032C0005B788C2B00F0CD818C2B06DC022B17D089
:1032D000032B1BD0012B0AD0E4E18E2B00F0C1811F
:1032E0008E2BC0F2B8818F2B00F0B581DAE197F810
:1032F0005230002B40F0D381002387F85730CEE1C5
:1033000097F84B3043F0040387F84B3097F852306E
:10331000002B02D11A2300F0A2BC97F8522097F894
:1033200056300121994097F85530012000FA03F3F7
:103330000B431340002B02D1202300F090BC97F8E0
:1033400056307C4A0C339B001344586897F856302B
:10335000794A06339B0013445B681946FDF79EFBD0
:103360000346BB6397F85530724A0C339B001344F5
:10337000586897F85530704A06339B0013445B68D1
:103380001946FDF78BFB03467B63B7F84C3003F01F
:103390008003002B00F0AF80B7F84C3023F080039F
:1033A000A7F84C300C226549654807F03DF9034603
:1033B000002B02D1212300F052BC5E4BDB78012BA5
:1033C00009D15C4B9B6A5F491846FDF771FC0346C7
:1033D0001A46584B9A62574B9B6A4FF081411846E8
:1033E000FDF766FC03461A46524B9B6A1946104687
:1033F000FDF75EFC03461C46B96BB86BFDF758FC45
:10340000034619462046FDF749FB03461C46796BE7
:10341000786BFDF74DFC034619462046FDF73EFB51
:1034200003463B644FF00001386CFDF7DFFD0346B7
:10343000002B02D0222300F012BC386C07F036FAC1
:10344000034683F00044796BB86B01F0D7FD034667
:1034500019462046FDF7E0FC03463B64354B5B789C
:10346000032B03D13B6C83F000433B64314B9B6ADD
:103470004FF000011846FDF7B9FD0346002B09D0B7
:103480003B6C83F000433B642A4B9B6A83F0004310
:10349000284A936297F85640396C786BFDF708FC20
:1034A00003461946B86BFDF7F9FA03464FF07C5115
:1034B0001846FDF7FDFB034619461E4AA31C9B0058
:1034C0001344996097F85540396CB86BFDF7F0FBE1
:1034D0000346796B1846FDF7E3FA03464FF07C513B
:1034E0001846FDF7E5FB03461946124AA31C9B004C
:1034F00013449960D6E097F8512097F8563001218F
:10350000994097F85530012000FA03F30B4313401C
:10351000002B01D12323A2E3B7F84C3023F00E0394
:10352000A7F84C30034BDB78012B34D1002387F80C
:1035300047302CE0BC0E0020780E0020F00E00205A
:10354000940E00203333CB4197F8512097F8473041
:1035500042FA03F303F00103002B13D097F847401E
:1035600097F84730A54A02339B0013449B68A4494F
:103570001846FDF79DFB03461946A04AA31C9B0075
:103580001344996097F84730013387F8473097F82C
:103590004730022BD8D997F85630984A02339B000F
:1035A00013449B681946B86BFDF778FA0346BB6372
:1035B00097F85530914A02339B0013449B68194693
:1035C000786BFDF76BFA03467B63796BB86B01F0A0
:1035D00015FD386397F85630884A02339B00134430
:1035E000986897F85530854A02339B0013449B68CE
:1035F000194601F003FD0246804B9A627F4B9B6A9D
:103600001946386BFDF74AFA034623F00043FB6284
:103610007C49F86AFDF708FD0346002B00D141E024
:103620004FF07C51F86AFDF7FFFC0346002B01D0F8
:10363000212314E3714B9B6A73491846FDF738FB4D
:103640000346F96A1846FDF7D1FC0346002B00D16A
:1036500028E0212303E397F84B3043F0100387F869
:103660004B30664B5B788E2B03D0644B5B788F2B93
:1036700005D197F84B3043F0080387F84B3097F8A3
:103680005230002B01D11A23E9E20C225F49604835
:1036900006F0CAFF0346002B03D12123DFE200BF5F
:1036A00000E000BF97F84B3003F00103002B06D079
:1036B000B7F84C3023F02103A7F84C3007E0B7F8F7
:1036C0004C3023F4487323F00103A7F84C3097F8EB
:1036D0005730002B05D0B7F84C3023F4E053A7F84F
:1036E0004C30B7F84C30002B01D02423B7E207F15F
:1036F0000803BB620C220021B86A06F0A4FF97F809
:103700004B3003F00103002B33D0B7F84E3023F0D9
:103710004903002B01D01023A1E2384B1B78352B35
:1037200005D0364B1B78002B01D0102397E2394B84
:10373000DA68BB6A5A60374B5A7A364B1B7A1343A6
:10374000DBB23B7407F108032C49184600F09CFAE1
:10375000034687F8273097F82730002B06D12D4BEA
:10376000264A1C33343207CA83E8070097F827300B
:1037700075E2294B93F8483003F00203002B59D02F
:103780001E4B5B78012B0DD01C4B5B78022B09D0B4
:103790001A4B5B78032B05D097F84B3043F040036E
:1037A00087F84B3097F85230002B0AD097F85730F3
:1037B000022B06D197F84B3063F07F0387F84B302C
:1037C00038E0144B5B7A102B34D1124B1B78012B51
:1037D00007D0104B1B78022B03D00E4B1B78032B0A
:1037E0001CD197F84B3003F04003002B22D097F800
:1037F0004B3043F0200387F84B301BE0BC0E002019
:103800003333CB410AD7A33B6F12833AF00E00202B
:10381000940E0020780E0020B410002097F84B3052
:1038200003F04003002B05D197F84B3043F0200301
:1038300087F84B309D4B1B6A9D4A93619B4B9A784E
:103840009B4B5A709A4B5B78002B06D0BB6A1B7A55
:1038500043F00803DAB2BB6A1A72944BDB68944AED
:103860001361934B1A69BB6A1A60914BDA688F4BEC
:10387000DB6A19461046FDF7AFFB0346002B05D067
:1038800097F84B3003F02003002B21D0884B5B7A54
:10389000002B19D097F94B30002B15DB97F84B30E4
:1038A00003F04003002B07D0814B5B7A4FF00001FF
:1038B000184604F05FFE07E07D4B5A7A7B4BDB6ACB
:1038C0001946104604F056FE784BDB6A784AD360FE
:1038D00097F84B3003F04003002B03D1744BDA68A8
:1038E000BB6A5A60714B93F83020714B1A75704B5C
:1038F0005A7A6E4B9B7A9A420BD06C4B9A7ABB6A7F
:103900005B681946104604F035FE684B9A7A684B9E
:103910005A72BB6A1A7A664B5B7A1343DAB2BB6A95
:103920001A72634B1A7A614B5B7A9A4214D05F4BDE
:103930005B7A1846FEF798FB5C4B5B7A002B03D151
:103940005B4B00221A7207E0594B1A7A574B5B7A8D
:103950001343DAB2564B1A72BB6A1A7A544B1B7A6B
:103960001343DAB2BB6A1A72504B1B78042B04D192
:103970004E4B5B6A184601F027F94C4B5A794C4B79
:103980001A714A4BDA784A4B9A7097F85730032BE2
:103990001CD1464B9A79464B5A71454B5B79002BAB
:1039A00003D1424B4FF00002DA63414B1A6C3F4B9C
:1039B000DB6B19461046FDF70FFB0346002B05D1C4
:1039C0003A4BDB6B3A4A136406F03AFC384B9A796F
:1039D000364BDB799A420CD0344BDA79344B9A71FE
:1039E000334B283307F1140207CA83E8070006F0B7
:1039F00027FC2E4B1A792E4BDA702C4B1B78262B7A
:103A000040D0262B06DC1C2B21D01E2B1FD00A2BCE
:103A100007D05EE05C2B3FD0662B51D0282B36D0F0
:103A200057E097F853302349184604F069F8204BC3
:103A30009B7997F853209A424AD11D4B1B4A283351
:103A4000103207CA83E8070006F0FAFB40E0BB6AC1
:103A50001B7A43F00103DAB2BB6A1A7297F8573047
:103A6000002B03D0B96A144800F020FEB96A11484F
:103A700000F01CFE0E4B0D4A1C33103207CA83E8BF
:103A8000070026E00D49062004F03AF821E00B4932
:103A9000072004F035F81CE0054B044A3433343277
:103AA00007CA83E8070006F0CBFB12E0BC0E00203B
:103AB000780E0020CC0E0020F00E0020940E002086
:103AC0000C220021684806F0BEFD06F0B9FB00E0BC
:103AD00000BF664B5A78664B1A70654B1B78502BAB
:103AE00067D097F85730022B63D1002387F83F3017
:103AF0005F4B1B78012B04D1B96A5E4800F0D6FDFC
:103B000045E05B4B1B78002B0BD1BB6A1B7A43F063
:103B10000103DAB2BB6A1A72B96A564800F0C6FDF0
:103B200035E0534B1B78022B03D0514B1B78032BF2
:103B30001CD14E4B9B6A97F84B2002F00402002ADE
:103B400014BF01220022D2B2049297F854200392AB
:103B500097F85520029297F8562001920093464B11
:103B6000464AB96A434800F0EFFD10E0BB6A1B7A91
:103B700043F00403DAB2BB6A1A7297F84B301A4664
:103B8000B96A3C4801F05EF8034687F83F3097F881
:103B90003F30002B07D1364B344A1C33343207CA2E
:103BA00083E8070005E097F83F30012B01D1FEF7CD
:103BB000A3FB2E4B1A7A2E4BDA712D4BDB79002B9F
:103BC0004CD002F09FFA2A4BDB79032B09D12C4B06
:103BD0001B78022B3FD0082006F0AEFB02F0B6FAAD
:103BE00039E0234B01221A70214B00221A71204B1D
:103BF0000022DA701E4B00225A701D4B00229A716F
:103C00001B4B00225A721A4B00221A721C4B642260
:103C10001A721B4B64225A72194B64229A72184B07
:103C20001B78022B14D0124B9B791649184604F0CE
:103C3000ADF80346002B01D1072310E006F000FB8E
:103C40004FF00001002004F04BFC0020FEF7E0F9EB
:103C5000082002F063FF064B0022DA7100231846A9
:103C60005837BD46B0BD00BFAC0E0020BC0E0020D2
:103C7000780E0020F00E0020CC0E0020940E0020C4
:103C8000000F0020A00E002080B582B000AF786049
:103C900039603B68DA687B681A607B681B7A43F09E
:103CA0000403DAB27B681A72154B93F8483003F0BC
:103CB0002003002B09D03B683433184606F008FB7C
:103CC0000346002B01D00F2316E03B68343379689C
:103CD000184600F0EBFC0B4B1B78002B0BD101F0CE
:103CE000EDFB0346002B06D0064B20221A7005F090
:103CF000B9F804F0C3FC002318460837BD4680BD60
:103D0000B4100020000F002080B483B000AF034641
:103D1000FB71094997F907305B09FA7902F01F0234
:103D2000012000FA02F2203341F8232000BF0C37B3
:103D3000BD4680BC704700BF00E100E080B483B0A6
:103D400000AF0346FB71094997F907305B09FA791F
:103D500002F01F02012000FA02F2603341F8232032
:103D600000BF0C37BD4680BC704700BF00E100E0DB
:103D700080B584B000AF01210920FDF7FBFD0323CE
:103D8000BB734823FB734FF4E043BB8107F10C0383
:103D900019462048FDF784FB1F4B93F8483003F089
:103DA0000803002B2FD00C210120FDF7F1FC0D2181
:103DB0000120FDF7EDFC0E210120FDF7E9FC4FF499
:103DC000E0437B6000233B72134B93F8483003F0D1
:103DD0004003002B02D008237B7201E00C237B728E
:103DE0000123BB723B1D1846FDF7F8F928233B70F1
:103DF00002237B700223BB700123FB703B461846F5
:103E0000FDF78AF901E000F009F800BF1037BD4660
:103E100080BD00BF000C0140B410002080B500AF91
:103E20002820FFF771FF00BF80BD000080B582B081
:103E300000AF0023FB711A48FDF7EEFB0346BB8081
:103E4000184B93F8483003F04003002B03D1BB8894
:103E500083F4E043BB80BB88002B1BD00023FB70A6
:103E600015E0FB78104A32F81320BB8813409BB250
:103E7000002B09D0FB78012202FA03F35AB297F91A
:103E8000073013435BB2FB71FB780133FB70FB78A7
:103E9000022BE6D9FB7918460837BD4680BD00BF26
:103EA000000C0140B410002008BA000880B500AF33
:103EB0004FF48050FDF704FA0346002B03D04FF473
:103EC0008050FDF721FA4FF40050FDF7F9F9034651
:103ED000002B03D04FF40050FDF716FA4FF480404A
:103EE000FDF7EEF90346002B03D04FF48040FDF7B9
:103EF0000BFA2820FFF722FF074B1B78012B09D074
:103F0000064B1B78DBB2002B04D100F027FF012009
:103F100006F044FA00BF80BD000F0020300F0020E3
:103F200080B594B000AF0346FB71BF4B5B78002BAC
:103F300040F0158207F120033B630C220021386B0F
:103F400006F081FB3B6B06221A72032387F84F3081
:103F50004FF00003BB64002387F847303CE097F83C
:103F6000473097F84720B14931F812205B0007F13C
:103F700050010B4423F8382CFA7997F8473042FA6D
:103F800003F303F00103002B21D097F84730A84A30
:103F900008339B0013445B68A6491846FCF788FE6B
:103FA0000346B96C1846FDF721F80346002B01D0F3
:103FB000BB6C0BE097F847309D4A08339B001344D5
:103FC0005B689C491846FCF773FE0346BB6497F890
:103FD0004730013387F8473097F84730022BBED976
:103FE00001233B64924B1B6DFB6307F10C03924969
:103FF000184606F04FF900237B87002387F83930F5
:10400000002387F8473060E0FA7997F8473042FAA2
:1040100003F303F00103002B52D097F8393001333A
:1040200087F8393097F84730834A002142F8231047
:104030007F4BB3F84A301A4697F8473042FA03F3F9
:1040400003F00103002B18D03B6C002B0BD097F82A
:104050004730BA6C82F000429B0007F150010B44DC
:1040600043F8442C21E097F847309B0007F15002B9
:104070001344BA6C43F8442C17E03B6C002B09D076
:1040800097F847309B0007F150021344BA6C43F88D
:10409000442C0AE097F84730BA6C82F000429B004B
:1040A00007F150010B4443F8442C97F847305B006C
:1040B00007F15002134433F8382C7B8F13437B876E
:1040C00097F84730013387F8473097F84730022B8D
:1040D0009AD997F839301846FCF792FD03461846EE
:1040E00006F0E4FB03461946F86BFCF7E1FD0346D6
:1040F000FB634D4A7B8FD3803B6BFA6B1A6007F1F1
:104100000C03396B184601F0EDFA474B04221A7183
:1041100004F0A8FE04F0B2FA3B6C002B3BD0FFF792
:1041200085FE034687F82F30002387F847302BE0C1
:1041300097F847305B0007F15002134433F8382CEE
:104140007B8F13409BB2002B19D097F82F2097F844
:10415000473042FA03F303F00103002B0FD097F826
:1041600047305B0007F15002134433F8383C1BB270
:10417000DB431AB2B7F93A3013401BB27B8797F88A
:104180004730013387F8473097F84730022BCFD9B3
:10419000254A7B8FD38004F065FE284B1B78DBB269
:1041A00003F03403002B4DD0244B1B7887F82E30BE
:1041B00097F82E3003F01003002B02D0062006F0F3
:1041C000EDF897F82E3003F02003002B02D00720E3
:1041D00006F0E4F83B6C002B0BD1FFF727FE0346FB
:1041E0001A46FB791340DBB2002B02D0082006F000
:1041F000D5F83B6C002B08D097F82E3003F0040361
:10420000002B02D0092006F0C9F80D4B1B78DBB259
:10421000002B04D000F0A2FD01F098FFA0E00420E4
:1042200006F0A0F815E000BF000F0020F8B9000864
:10423000B41000200000C0BF240F0020150F002084
:10424000300F00207B8F03F015039BB2002B7FF40F
:1042500063AF04F0EBFC444BB3F85430184600F065
:10426000BBFE3B6C002B0CBF01230023DBB23B6485
:104270003B6C002B0BD03C4B9B6D3C491846FCF72C
:1042800017FD0346BB64384BDB6CFB6305E0364B24
:104290009B6DBB64344B1B6DFB6397F84F305A1E0C
:1042A00087F84F20002B7FF4A0AE002387F847301B
:1042B0004DE0FA7997F8473042FA03F303F001032F
:1042C000002B3FD0284BB3F84A301A4697F84730B6
:1042D00042FA03F303F00103002B1CD097F8473098
:1042E000214A08339B0013445A681F4B9B6D1946A3
:1042F0001046FCF7D5FB0346184697F847301A4A94
:1043000052F823301946FCF7D3FC0346184606F052
:1043100057FA786310E0144B9B6D83F0004097F8D8
:104320004730114A52F823301946FCF7C1FC0346C6
:10433000184606F045FA786397F847300C497A6BCF
:1043400041F8232097F84730013387F8473097F832
:104350004730022BADD9074B00221A7100E000BF95
:104360005037BD4680BD00BFB41000200000A04003
:10437000240F0020000F002080B582B000AF7860CD
:10438000786805F0A5FF0346002B1DD0104B0122D5
:10439000DA700F4B1B78082B0CD1082005F0CCFFEE
:1043A00001F0D4FE0A4B5B78002B0CD1084B1B7834
:1043B000002BF5D100F0D2FC022005F0EFFF01F058
:1043C000C5FE00BF00E000BF0837BD4680BD00BF8E
:1043D000000F002080B588B000AF78604FF44070C7
:1043E000FCF788FE25233B7200237B720123FB72BE
:1043F00007F108031846FCF78FFE012144F205007F
:10440000FDF7B8FA4FF40073BB831823FB7703233F
:10441000BB7707F11C0319461C48FDF741F84FF420
:104420008063BB830423FB7707F11C0319461748FD
:10443000FDF736F87B68FB6000233B8200237B821C
:104440000023BB8200233B830C23FB82104A104BCA
:104450009B899BB243F00C039BB2938107F10C0341
:1044600019460B48FDF758FC012240F22551084837
:10447000FDF72BFD01210648FDF708FD054B012244
:104480001A7000BF2037BD4680BD00BF0008014044
:10449000003801401400002080B582B000AF012137
:1044A0001020FDF767FA0223BB701023FB704FF456
:1044B00000533B803B4619463548FCF7F1FF4FF46B
:1044C000E130FFF787FFFCF72DFFFDF72FFE314AA4
:1044D000304B1B6823F00403136003F015F903F05D
:1044E0008FFE04F003FC05F041FB0C2200212A485A
:1044F00006F0A9F8294B00221A70294B93F848308E
:1045000003F01003002B02D0244B01221A70234B1E
:104510001B78FB7114220021204806F094F81F4AF2
:10452000FB7913701D4B64221A721C4B64225A7261
:104530001A4B64229A720C2200211A4806F083F862
:10454000194B00221A70194B00221A70184B0022C6
:104550001A70184B00221A70174B00221A7003F0C1
:1045600099FAFDF7AFFE03F05DFEFDF7F5FCFFF7EE
:10457000FFFB01F065FC00F041FF04F057FB01F088
:10458000CFFAFDF7B9FE02F039FB01F0D5FCBEE72A
:104590000010014010E000E0240F0020000F002078
:1045A000B4100020180F0020160F0020150F002057
:1045B000300F0020FC0E0020140F002080B485B0C6
:1045C00000AF7860124A7B6842F2283101FB03F3A6
:1045D00053600F4B00229A600D4B01221A600C4B66
:1045E0001B68FB60FB6803F00103002B04D0FB6831
:1045F00003F48033002BF2D0054B00221A60044BE9
:1046000000229A6000BF1437BD4680BC704700BFCF
:1046100010E000E080B500AF094B1B781A464FF45C
:1046200000510848FDF72CF8054B1B78012B14BFEF
:1046300001230023DBB21A46014B1A7000BF80BD74
:10464000150000200010014080B483B000AF034685
:10465000FB71084997F907305B09FA7902F01F02EC
:10466000012000FA02F241F8232000BF0C37BD46BA
:1046700080BC704700E100E080B483B000AF034627
:10468000FB71094997F907305B09FA7902F01F02BB
:10469000012000FA02F2603341F8232000BF0C37FA
:1046A000BD4680BC704700BF00E100E080B582B02D
:1046B00000AF78603960214B93F8483003F0200355
:1046C000002B06D01E4B1B78202B02D07868FFF7FA
:1046D00053FE1B4B1B78022B29D001F037FD184BE2
:1046E0005B78002B25D100F029FF0346002B02D078
:1046F00001F020FDF1E700BF3968786800F0F2FFB3
:104700000346002B16D10D4B93F8483003F00203FB
:10471000002B0FD03B681B7A03F01003002B09D04D
:104720003B685B681946102003F024FF02E000BFDD
:1047300000E000BF0837BD4680BD00BFB4100020B8
:10474000000F002000000000B0B594B000AFF8608A
:10475000B9607A603B6097F864309B007A681344D4
:10476000186897F864309B003A6813441B68194630
:10477000FCF796F90346FB6397F868309B007A686C
:104780001344186897F868309B003A6813441B6814
:104790001946FCF785F90346BB6397F864309B0024
:1047A0003A6813441B6883F00043FB6497F8683051
:1047B0009B003A6813441B6883F00043BB6497F87E
:1047C00064309B00FA6813441B68F96B1846FCF7C9
:1047D00065F903467B6397F868309B00FA681344D9
:1047E0001B68B96B1846FCF759F903463B63396BF4
:1047F000F86CFCF75DFA03461C46796BB86CFCF765
:1048000057FA034619462046FCF748F903461C466A
:10481000796BF86CFCF74CFA03461D46396BB86CA3
:10482000FCF746FA034619462846FCF739F90346D1
:104830001946204606F038F8786497F87030002B57
:104840001BD0786CFBF7E8FD85A3D3E90023FCF7C8
:10485000BDF80346002B2BD0786CFBF7DDFD82A35F
:10486000D3E90023FBF778FC03460C4618462146A3
:10487000FCF7C0F803467B641AE0786CFBF7CCFDCC
:104880007BA3D3E90023FCF797F80346002B0FD056
:10489000786CFBF7C1FD74A3D3E90023FBF75EFC42
:1048A00003460C4618462146FCF7A4F803467B64F1
:1048B0004FF07C51786CFCF7FBF90346396E1846D3
:1048C000FCF7F6F9034623F000446B4BDD6B3B6EBF
:1048D00019461846FCF7E4F803461A46664BDB6BAC
:1048E00019461046FCF7DAF8034619462846FCF745
:1048F000DFF90346184605F0D9FF0346194620465E
:10490000FCF78AFA0346184605F01AFF03461846D4
:10491000FCF7D0FB0346FB85FB8D002B00F04981A3
:10492000BB681B7A03F00803002B15D0BB681C681A
:10493000FB8D1846FCF768F9034619462046FCF73C
:10494000B7F903461A46BB681A60BB681B7A23F0A6
:104950000803DAB2BB681A72FB8D1846FCF754F9EB
:1049600003461946786CFCF757FA0346BB6297F882
:104970006C309B00FA681344186897F86C309B0001
:104980007A6813441B681946FCF788F803461C46EE
:10499000FB8D1846FCF738F9034619462046FCF70C
:1049A0003BFA03467B62B96AB86AFCF781F90346B1
:1049B00019464FF08040FCF771F803463B622F49DF
:1049C000B86AFCF775F903461C464FF08141386A16
:1049D000FCF766F8034619462046FCF769F90346DA
:1049E000FB614FF07C51386AFCF762F903463B6289
:1049F000002387F841300123A7F84230D3E097F82D
:104A000041300B2B3CD8F969F86CFCF751F903469F
:104A10001C46396AB86CFCF74BF903461946204628
:104A2000FCF73EF80346BB61396AF86CFCF740F9C5
:104A300003461C46F969B86CFCF73AF90346194677
:104A40002046FCF72BF80346FB64BB69BB6497F870
:104A50004130013387F8413071E000BFAFF300808F
:104A60008DEDB5A0F7C6A0BE182D4454FB2119400A
:104A70008DEDB5A0F7C6A03EB4100020ABAA2A3E2B
:104A8000B7F842301846FCF7BFF80346B96A184633
:104A9000FCF70EF90346184605F01EFE7861B7F8DC
:104AA00042301846FCF7B0F80346B96A1846FCF7DE
:104AB000FFF80346184605F0AFFE386197F86430FA
:104AC0009B003A6813441B6883F0004379691846D9
:104AD000FCF7EEF803461C4697F868309B003A68EE
:104AE00013441B6839691846FCF7E2F80346194677
:104AF0002046FBF7D5FF0346FB6497F864309B0024
:104B00003A6813441B6883F0004339691846FCF780
:104B1000CFF803461C4697F868309B003A68134468
:104B20001B6879691846FCF7C3F803461946204606
:104B3000FBF7B4FF0346BB64002387F8413097F8C6
:104B400064309B007A68D418F96CF86BFBF7A8FF07
:104B50000346236097F868309B007A68D418B96CD4
:104B6000B86BFBF79DFF0346236097F86C309B0002
:104B70007A68D41897F86C309B007A6813441B68E5
:104B8000796A1846FBF78CFF03462360B96878689A
:104B9000FFF78CFD0B4B5B78002B0FD1B7F8423041
:104BA0000133A7F84230B7F84220FB8D9A42FFF458
:104BB00026AFB968F868FFF779FD00E000BF50370D
:104BC000BD46B0BD000F002080B582B000AF786058
:104BD000074B1B78022B06D001F094FA002178686D
:104BE00000F0C0F900E000BF0837BD4680BD00BF3F
:104BF000000F002080B582B000AF0346FB71FFF7C5
:104C00000DF90420FFF78CF90320FFF789F901F073
:104C10009DFA0B4B5B78002B0ED1FDF76DFB00F07E
:104C20007FFF4FF4E040FCF76FFB2820FFF724FDE7
:104C30002820FFF709FD00E000BF0837BD4680BD12
:104C4000000F002080B586B000AFF860B960134651
:104C5000FB713E4B1B78022B01D1002371E001F068
:104C600051FA3A4B5B78002B01D0022369E0FB79C3
:104C700003F00803002B14BF01230023DBB2FB75F4
:104C8000FB7903F01003002B14BF01230023DBB2D8
:104C9000BB752E4B00225A71FB7D184601F0ECF8D3
:104CA00001F012F90346002B09D0042005F076FB31
:104CB00001F04CFA002001F0DFF8022341E0B9686E
:104CC000F868FFF7F3FC224B01221A70022005F06E
:104CD00033FB01F03BFA1D4B5B78002B01D0022324
:104CE0002FE01A4B1B78002BF3D1194B1B78DBB24A
:104CF000012B0CD1BB7D002B05D0164B164A07CAE1
:104D000083E8070006E0052005F048FB02E00F4BB2
:104D100001225A710E4B00221A70002001F0ACF8EB
:104D200001F014FA03F082FF00F068FB00F0F8FED7
:104D300002F0B6F8054B5B79002B01D0012300E0AF
:104D4000002318461837BD4680BD00BF000F002065
:104D5000160F0020180F0020240F002080B500AF90
:104D6000164B1B78DBB203F01003002B24D110206C
:104D700005F0E2FA03F00EFBFDF73CF9104B1B784F
:104D800003F02C03002B05D10D4B1B7903F0060318
:104D9000002B11D00A4B1B78042B08D1094B1B7830
:104DA000DBB2002B06D1062005F0F8FA02E0032062
:104DB00005F0F4FA03F0BCFC00BF80BD150F002025
:104DC000000F0020300F002080B58CB000AFF860DD
:104DD000B9607A60BB681B781A46FB681344FB62B3
:104DE000FB6A5A1CFA621B7887F82B3000237B621F
:104DF00097F82B302D2B08D101237B62FB6A5A1CBC
:104E0000FA621B7887F82B3009E097F82B302B2BB0
:104E100005D1FB6A5A1CFA621B7887F82B300023F5
:104E20003B620023FB770023BB770023BB6197F82D
:104E30002B30303B87F82B3097F82B30092B22D8BA
:104E4000BB7F0133BB77BB7F082B12D8BB69002B1C
:104E500005D097F91F30DBB2013BDBB2FB773B6A31
:104E60009A003B6A13445A0097F82B3013443B6274
:104E700012E0BB69002B0FD197F91F30DBB2013371
:104E8000DBB2FB7708E097F82B30FE2B0BD1BB6928
:104E9000002B08D10123BB61FB6A5A1CFA621B7804
:104EA00087F82B30C3E7BB7F002B01D100234EE0F6
:104EB000386AFBF7A5FE03467B614FF00001786975
:104EC000FCF78AF80346002B2CD109E022497869C7
:104ED000FBF7EEFE03467B61FB7F0233DBB2FB7721
:104EE00097F91F30B3F1FF3FF0DB97F91F30002B2C
:104EF00006DA1A497869FBF7DBFE03467B6111E0AD
:104F000097F91F30002B0DDD15497869FBF7D0FEAE
:104F100003467B61FB7F013BDBB2FB7797F91F30D8
:104F2000002BF1DC7B6A002B05D07B6983F000420B
:104F30007B681A6002E07B687A691A60FA6AFB682B
:104F4000D31ADBB2013BDAB2BB681A7001231846F0
:104F50003037BD4680BD00BF0AD7233CCDCCCC3D09
:104F60000000204180B584B000AF78600B46FB7034
:104F700017497868FBF79CFE0346184605F06CFB62
:104F800003461846FCF796F80346FB8114E0114BE4
:104F90005B78002B16D1FB78002B02D101F0D6F8FC
:104FA00007E001F0E1F80B4B9B7803F00203002BC4
:104FB0000AD13220FFF702FBFB895A1EFA81002B2F
:104FC000E5D102E000BF00E000BF1037BD4680BD64
:104FD0000000A041000F002080B582B000AF034662
:104FE000FB8002E00120FFF7E9FAFB885A1EFA80F5
:104FF000002BF7D100BF0837BD4680BD90B583B008
:1050000000AF7860396079687868FBF751FE034635
:105010001C4639683868FBF74BFE034619462046A4
:10502000FBF73EFD0346184605F040FC03461846D4
:105030000C37BD4690BD90B587B000AF78604FF09B
:1050400000033B610023FB7523E0FB7D9B007A6836
:1050500013441B684FF000011846FBF7BDFF0346E1
:10506000002B13D1FB7D9B007A6813441868FB7DED
:105070009B007A6813441B681946FBF719FE034628
:1050800019463869FBF70CFD03463B61FB7D013394
:10509000FB75FB7D022BD8D9386905F007FC386118
:1050A00039694FF07E50FBF7B7FE0346FB600023E3
:1050B000FB7511E0FB7D9B007A68D418FB7D9B009B
:1050C0007A6813441B68F9681846FBF7F1FD03463C
:1050D0002360FB7D0133FB75FB7D022BEAD93B6925
:1050E00018461C37BD4690BD80B584B000AF7860CF
:1050F0003960234BBB600023FB7339E0FB7B9B00D3
:105100003A6813441B684FF000011846FBF764FF30
:105110000346002B29D1FB7B9B007A681344186857
:10512000FB7B9B003A6813441B681946FBF774FE2F
:10513000034623F00043B9681846FBF775FF0346A2
:10514000002B01D0BB680FE0FB7B9B007A68134407
:105150001868FB7B9B003A6813441B681946FBF7F1
:105160005BFE034623F00043BB60FB7B0133FB7314
:10517000FB7B022BC2D9BB6818461037BD4680BDE9
:10518000FFFF7F7F80B483B000AF0346FB71FB79E4
:105190000133FB71FB79242B01D10023FB71FB79D7
:1051A00018460C37BD4680BC704780B483B000AF52
:1051B0000346FB71FB79002B01D12423FB71FB79A2
:1051C000013BFB71FB7918460C37BD4680BC70472C
:1051D00090B585B000AF854B1B781846FFF7E5FF0B
:1051E0000346FB73824B1B78FA7B9A4200F0FA80ED
:1051F000FB7B342202FB03F37E4A13447B607B6813
:105200009C697B68DB6919461846FBF749FC034635
:105210001A467B681B6A19461046FBF749FD034690
:1052200019462046FBF7E2FE0346002B02D07B68BE
:105230009B690EE07B68DB6919461846FBF730FC7A
:1052400003461A467B681B6A19461046FBF730FD79
:1052500003467A685361FB7B1846FFF7A6FF0346B7
:10526000FB73634B1B78FA7B9A4251D1624B1B78DC
:10527000FA7B9A4251D103F0BFFD4EE07B68BB60E0
:10528000FB7B342202FB03F35A4A13447B60FB7B13
:105290001846FFF78AFF0346FB73574B1B78FA7BD0
:1052A0009A4201D103F0A8FD7B685A697B689B692B
:1052B00019461046FBF790FE0346002B00D027E06E
:1052C000BB685C697B68DB6919461846FBF7E8FB3D
:1052D00003461A467B681B6A19461046FBF7E8FC32
:1052E000034619462046FBF7DBFB03463B607B6821
:1052F0009B6939681846FBF797FE0346002B03D0DD
:105300007B683A685A6103E07B689A697B685A61F6
:10531000374B1B78FA7B9A42B0D1354B1B781A4633
:10532000342303FB02F3334A1344BB60304B1B7836
:105330001846FFF727FF0346FB734DE0BB687B6011
:10534000FB7B342202FB03F32A4A1344BB607B68D5
:105350005A69BB685B6919461046FBF747FE03466E
:10536000002B25D07B685C697B68DB691946184691
:10537000FBF796FB03461A467B681B6A19461046E4
:10538000FBF796FC034619462046FBF789FB0346CC
:105390003B60BB685B6939681846FBF745FE03460E
:1053A000002B05D0BB683A685A61114AFB7B137029
:1053B000BB685A69BB689B6919461046FBF70CFE2F
:1053C0000346002B02D00A4AFB7B1370FB7B184676
:1053D000FFF7D8FE0346FB73044B1B78FA7B9A4217
:1053E000ACD100E000BF1437BD4690BD810800205D
:1053F00083080020300100208008002080B500AF25
:105400001C220021034805F01EF900F005F800BF3A
:1054100080BD00BF8408002080B400AF074B00228D
:105420001A70074B00221A70064B01221A70064BA5
:1054300000221A7000BFBD4680BC70478008002063
:1054400081080020820800208308002080B582B0F7
:1054500000AF0E4B1A780E4B1B789A4212D00C4BB1
:105460001B781846FFF78EFE0346FB71084B1A782F
:10547000084B1B789A4202D1064AFB791370044A02
:10548000FB79137000BF0837BD4680BD810800203E
:10549000800800208308002080B400AF054B1B78F3
:1054A0001A46342303FB02F3034A13441846BD464D
:1054B00080BC7047810800203001002080B400AF1C
:1054C000094B1A78094B1B789A4201D1002307E057
:1054D000064B1B781A46342303FB02F3044A134499
:1054E0001846BD4680BC7047810800208008002017
:1054F0003001002080B582B000AF0D4B1B781846FC
:10550000FFF740FE0346FB710A4B1B78FA799A427B
:1055100002D14FF0000307E0FB79074A342101FB79
:1055200003F3134414331B6818460837BD4680BD87
:1055300080080020810800203001002080B400AFE6
:10554000064B1A78064B1B789A4201D1012300E0E2
:1055500000231846BD4680BC704700BF800800206D
:105560008208002080B584B000AF78607B68DB6A79
:10557000FB607B689B7C03F00103002B11D0224B66
:105580005B7A1846FBF740FB034620491846FBF7B9
:105590008FFB03461946F868FBF78AFB0346FB605E
:1055A00022E07B689B7C03F00403002B10D1164B98
:1055B0001B7A1846FBF728FB034614491846FBF7ED
:1055C00077FB03461946F868FBF772FB0346FB605E
:1055D0007B689B6AF9681846FBF708FD0346002BB9
:1055E00002D07B689B6AFB604FF07E51F868FBF746
:1055F0001BFD0346002B01D0FB6801E04FF07E53FA
:1056000018461037BD4680BD000F00200AD7233C46
:1056100080B584B000AFF860B9607A607968B86826
:10562000FBF702FD0346002B08D079687868FBF78A
:105630003FFB03461A46FB689A6107E0B968B86801
:10564000FBF736FB03461A46FB689A61FB689A69CA
:10565000FB685B6A19461046FBF7E6FC0346002B25
:1056600000D103E0FB685A6AFB689A6100BF1037FB
:10567000BD4680BD80B584B000AF154B1B78FB7371
:10568000144BBB6017E0FB7B342202FB03F3124A8E
:1056900013447B607868FFF765FF3860BA68396843
:1056A0007868FFF7B5FF3B68BB60FB7B1846FFF7E8
:1056B00069FD0346FB73094B1B78FA7B9A42E2D1E2
:1056C000074ABB68936100BF1037BD4680BD00BF6D
:1056D00080080020FFFF7F7F30010020810800202C
:1056E0008408002090B597B000AF78603960B24B65
:1056F0001B781A46342303FB02F3B04A1344FB64BD
:1057000034220021F86C04F09EFF3B681A7AFB6C8F
:105710009A743B685A68FB6C1A63FB6C9B7C03F0C1
:105720000203002B06D0A64A07F1240307CA83E828
:10573000070005E0A34A07F1240307CA83E807002E
:10574000002387F857307FE097F8574097F8573095
:105750009B007A681344186897F857309A4A52F8B1
:1057600023301946FBF7A4FA0346184605F028F83B
:105770000246A30007F158010B4443F8282C97F880
:10578000572097F857309B0007F158010B4453F806
:10579000281C97F857309B0007F15800034453F832
:1057A000343CCB1A002BB8BF5B421946FB6C43F864
:1057B000221097F85720FB6C53F82220FB6CDB6813
:1057C0009A4238BF1A46FB6CDA6097F857309B0054
:1057D00007F15802134453F8282C97F857309B00D0
:1057E00007F158010B4453F8343CD31A1846FBF721
:1057F0000BFA97F85730744A52F823301946FBF7E2
:105800000BFB0346BB6497F857309B0007F1580227
:105810001344BA6C43F8402C4FF00001B86CFBF70E
:10582000E5FB0346002B0AD0FB6C1A8A97F8573029
:10583000664931F8133013439AB2FB6C1A8297F819
:105840005730013387F8573097F85730022B7FF6DF
:105850007BAFFB6CDB68002B01D1002351E107F12A
:1058600018031846FFF7E7FB0246FB6C1A6207F1C4
:10587000180319465648FFF737FC0246FB6CDA61FD
:1058800007F1180319465348FFF72EFC0246FB6C3C
:105890009A62FB6C9B7C03F00103002B04D0FB6C31
:1058A0009A6AFB6CDA6215E03B681A68FB6CDA6294
:1058B000FB6C9B7C03F00803002B0BD0FB6CDA6ABB
:1058C000FB6C1B6A19461046FBF7F2F903461A46B1
:1058D000FB6CDA62384B1A783F4B1B789A4205D042
:1058E000FB6C9B7C03F00203002B08D0FB6C4FF099
:1058F00000025A61FB6C4FF000025A62CEE04FF09A
:1059000000033B65002387F857303AE097F857309B
:105910002C4A02339B0013445A6897F857309B0077
:1059200007F158010B4453F8403C19461046FBF769
:10593000BFF903461946386DFBF7B0F803463B65DF
:1059400097F8574097F857309B0007F158021344D7
:1059500053F8400C97F857301A4A02339B0013440F
:105960005B681946FBF79AF803461A46A30007F14D
:1059700058010B4443F84C2C97F85730013387F803
:10598000573097F85730022BC0D91449386DFBF7C0
:105990004BFB0346002B04D0FB6C4FF000025A6215
:1059A0007CE00F49386DFBF721FB0346002B1BD031
:1059B000FB6C0C4A5A6271E0810800203001002023
:1059C000240F002084080020B410002000BA000832
:1059D000CC100020C010002080080020EFFF7F3F87
:1059E000EFFF7FBFFFFF7F7F07F10C031846FFF734
:1059F00022FB07F10C0319464448FFF775FB786456
:105A0000396D4FF07E50FBF749F803464FF07C515B
:105A10001846FBF74DF90346184604F047FF386473
:105A20003B4B9B6B796C1846FBF742F90346396C8C
:105A30001846FBF73DF903461C46396C4FF07E5083
:105A4000FBF72CF8034619462046FBF7E5F9034619
:105A50004FF000011846FBF7C9FA0346002B02D0AD
:105A60004FF0000218E02A4B9B6B796C1846FBF74D
:105A70001FF90346396C1846FBF71AF903461C4612
:105A8000396C4FF07E50FBF709F803461946204663
:105A9000FBF7C2F903461A46FB6C5A62FB6C9B7C0F
:105AA00003F00203002B2BD1F86CFFF75BFDF863CA
:105AB000184B9B691A46F96BF86CFFF7A9FD154A5C
:105AC000FB6B9361134B0C3307F1180207CA83E891
:105AD0000700104B1C4607F1300393E8070084E8E9
